:020000040800F2
:10000000D8170020B5020008E53C00083B3700087F
:1000100000000000000000000000000000000000E0
:10002000000000000000000000000000C9400008BF
:100030000000000000000000E73C0008CB40000882
:10004000C702000800000000C7020008C70200083D
:10005000C7020008C7020008C7020008C31F000843
:1000600000000000C7020008C7020008C70200081D
:10007000C7020008C7020008C7020008000000000D
:10008000F54000080000000000000000E540000806
:1000900000000000C7020008C70200083D37000842
:1000A00000000000C702000800000000C7020008AE
:1000B000C70200080000000000000000000000006F
:1000C00000F002F800F0CBF812A030C8083824186D
:1000D0002D18AC4201D100F0C2F80FCCA246AB46BD
:1000E0000CA730CF2D1B083F3F197C427F1E544484
:1000F0002D090426F441641EAC4201D300F0AFF890
:100100000126334200D0FB1A3343984754465D46DC
:10011000DFE70000B45C0000D45C0000103A02D3BA
:1001200078C878C1FAD8520701D330C830C101D598
:1001300004680C6070470000704700000023002432
:1001400000250026103A01D378C1FBD8520700D30E
:1001500030C100D50B60704710B56E2902D100F098
:10016000E2FB10BD702902D100F01BFD10BD662915
:1001700002D105F065FD10BD652902D105F060FDD5
:1001800010BD672902D105F05BFD10BD612902D1C8
:1001900005F05EFD10BD03681B0A01D380231943DF
:1001A000692902D100F0CAF810BD642902D100F01B
:1001B000C5F810BD752902D100F0C0F810BD6F2937
:1001C00002D100F099FC10BD782902D100F0D6FCD4
:1001D00010BDE92902D100F035FC10BDE42902D19F
:1001E00000F030FC10BDF52902D100F02BFC10BD51
:1001F000EF2902D100F08CFC10BDF82902D100F0EB
:10020000CBFC10BD0368DB0901D3802319436329AC
:1002100002D101F0A6F810BD732902D101F0A9F8AE
:1002200010BDE32902D101F0B3F810BDF32902D1CA
:1002300001F0B6F810BD002010BD1FB501F0FCF8AC
:1002400004000020002105F0E5FC401C6060002057
:10025000002105F0C9FCE0601FBD10B510BD01F024
:10026000C4F81146FFF7E9FF04F082FC01F058FCE6
:1002700003B4FFF7F2FF03BC01F0B6FC70B505460E
:100280000C46164602E00FCC0FC5103E102EFAD2D7
:10029000082E02D303CC03C5083E042E07D301CC9D
:1002A00001C5361F03E021782970641C6D1C761E81
:1002B000F9D270BD0748804707480047FEE7FEE7D0
:1002C000FEE7FEE7FEE7FEE704480549054A064B60
:1002D00070470000D5400008C1000008D811002078
:1002E000D8170020D8130020D81300201CB50C46C6
:1002F000064B7B4469460090204600F02CFB0446E8
:100300000020694600F03AFB20461CBD870600002D
:100310000FB41CB5084B06AA7B44694600900598AB
:1003200000F019FB04460020694600F027FB204638
:100330001CBC08BC04B0184761060000F7B50025D6
:1003400075291068009914A611D000F059FA0028F8
:1003500002DA404211A608E0009909688A0701D52F
:100360000FA602E0490704D50EA6012501E000F022
:1003700050FA009F0024243704E000F01FFC3031C5
:100380003955641C0028F8D12B4632462146009886
:1003900000F071FAFEBD0000000000002D0000001A
:1003A0002B00000020000000F3B50446002081B0BF
:1003B00020622046E1688847002872D0252802D0B4
:1003C0006268A168ABE0594F00267F442046E1688F
:1003D00088472028054608DB312D06D278192038B9
:1003E0000078002801D00643F0E7B00701D50420CB
:1003F00086430020E0610746A0612A2D0AD02846E6
:1004000005F0EAFB002827D0B8000019303D009025
:10041000856119E00298BA00121902C89161029030
:100420002046E1688847012F054617D1E06900287A
:100430001FDA202086431CE000980A218069484387
:1004400000994019303888612046E16888470546A0
:1004500005F0C2FB0028EFD1012F0AD02E2D08D1C4
:100460002046E16888470546202006437F1C022F6E
:10047000C3DBA069002803DA4042A06101200643E3
:10048000F00701D0102086436C2D0BD0682D09D0C9
:100490004C2D3CD06A2D38D0742D38D07A2D36D0E2
:1004A00016E040E0E1682F4620468847B8420546FE
:1004B00009D16C2F29D001208002E1680643204633
:1004C0008847054604E06C2F1DD0FF20013006430D
:1004D000002D28D028464138192803D80120C00211
:1004E00006432035204626602946029A1646FFF725
:1004F00033FE002810D001280BD0F61DF008C000F4
:100500000830029055E74020E1E78020D5E7002041
:10051000D3E7361D02964CE762682846A1689047EB
:10052000206A401C44E7206AFEBD0000925800008B
:1005300030B5441C03E00178401C00290DD0810730
:10054000F9D10B4BDD0104C8D11A91432940FAD0EF
:10055000001B0A0603D0C01E30BD001B30BD0A04BC
:1005600001D0801E30BD0902FCD0401E30BD00000D
:100570000101010101E004C0091F0429FBD28B071E
:1005800001D50280801CC90700D002707047002985
:100590000BD0C30702D00270401C491E022904D3AD
:1005A000830702D50280801C891EE3E70022EEE764
:1005B0000022DFE7002203098B4273D3030A8B4238
:1005C00058D3030B8B423CD3030C8B4221D312E054
:1005D00003460B437FD4002243088B4274D30309A4
:1005E0008B425FD3030A8B4244D3030B8B4228D345
:1005F000030C8B420DD30902FF2212BA030C8B426B
:1006000002D31212090265D0030B8B4219D300E00A
:10061000090AC30B8B4201D3CB03C01A5241830B8F
:100620008B4201D38B03C01A5241430B8B4201D33F
:100630004B03C01A5241030B8B4201D30B03C01A68
:100640005241C30A8B4201D3CB02C01A5241830AE2
:100650008B4201D38B02C01A5241430A8B4201D311
:100660004B02C01A5241030A8B4201D30B02C01A3B
:100670005241CDD2C3098B4201D3CB01C01A5241A2
:1006800083098B4201D38B01C01A524143098B422B
:1006900001D34B01C01A524103098B4201D30B0114
:1006A000C01A5241C3088B4201D3CB00C01A524139
:1006B00083088B4201D38B00C01A524143088B42FE
:1006C00001D34B00C01A5241411A00D20146524197
:1006D000104670475DE0CA0F00D04942031000D3B6
:1006E000404253409C46002203098B422DD3030A0B
:1006F0008B4212D38901FC2212BA030A8B420CD31B
:10070000890192118B4208D3890192118B4204D343
:1007100089013AD0921100E08909C3098B4201D3C3
:10072000CB01C01A524183098B4201D38B01C01AFD
:10073000524143098B4201D34B01C01A5241030974
:100740008B4201D30B01C01A5241C3088B4201D323
:10075000CB00C01A524183088B4201D38B00C01AD0
:100760005241D9D243088B4201D34B00C01A5241A7
:10077000411A00D201465241104663465B1001D334
:100780004042002B00D54942704763465B1000D3BE
:10079000404201B50449002802DC491C084000E041
:1007A0000846C046C04602BDFFFFFF7F7047704746
:1007B000704770B5044685690068C10601D53026CA
:1007C00000E02026C00707D070BD62683046A168EF
:1007D0009047206A401C20626D1EF6D570BD70B532
:1007E000044685690078C00707D170BD6268A168BA
:1007F00020209047206A401C20626D1EF6D570BDF7
:1008000009684A0501D540B27047C905FCD500B258
:10081000704709684A0501D5C0B27047C905FCD5C3
:1008200080B2704770B50C460546012A05D028787D
:10083000800600D5EA69002302E0012305E05B1C85
:10084000934202D2E05C0028F9D1A869E618C01AE8
:10085000A861286AC01828622846FFF7AAFF04E0AA
:100860006A682078A968641C9047B442F8D3284687
:10087000FFF7B5FF70BDFFB504460D4681B02430CB
:1008800000902168880604D51022E0699143216018
:1008900000E00120A84201DD471B00E0002704988A
:1008A000A1697A191018081AA0612078C00602D42C
:1008B0002046FFF77EFF002608E003986268A168E3
:1008C000805D9047206A401C761C20620498864216
:1008D000F3DB2078C0060AD52046FFF76AFF06E062
:1008E0006268A16830209047206A401C2062384628
:1008F0007F1E0028F4DC07E000986268A168405D74
:100900009047206A401C206228466D1E0028F3DCB8
:100910002046FFF764FF2078000602D5022005B0CC
:10092000F0BD0120FBE711680268006A530501D59C
:10093000087009E0D30501D5088005E0130602D54B
:10094000C21705C100E008600120704701694A1C18
:1009500002610878704700B58FB0029100210591BF
:100960000549019379440391114604906846FFF7C5
:100970001BFD0FB000BD0000E5FFFFFF0A6810700F
:10098000521C0A6070470000F7B50446154686B051
:100990002B487844002703C83E460090019111E09F
:1009A00007986A467100415A02A800F0FDFC411CFC
:1009B00007D02178890603D5E269391891420ED80B
:1009C0003F18761C2078800602D5E069B84206DD23
:1009D000AE42E5DB07987100405A0028E0D1A069DB
:1009E000C01BA0612046FFF7E4FE154878445A3842
:1009F00003C800900020019116E041006A46079864
:100A0000415A02A800F0D0FC0590401C0AD00025F5
:100A100005E0626802A8A168405D90476D1C0598DA
:100A20008542F6D30498401CB0420490E5DB206A6E
:100A3000C01920622046FFF7D2FE09B0F0BD0000C9
:100A4000DE520000F7B5D21D0025D20815A6D2004F
:100A5000F52905CA11D0002A05DA0021404291414A
:100A600011A60A4608E0009909688B0701D50FA670
:100A700002E0490701D50EA601251146009F00247A
:100A8000243704E000F0AEF830323A55641C0246D8
:100A90000A43F7D12B46324621460098FFF7EBFE7A
:100AA000FEBD0000000000002D0000002B00000033
:100AB0002000000070B504460021243408E05507EA
:100AC000D2086D0F303565545D072A43DB08491C99
:100AD00015461D43F3D10468002310A2250708D54D
:100AE00020252C400C4304D0C46901230CA2641EB1
:100AF000C461FFF7C0FE70BD10B504462146106802
:100B0000FFF787FE002302462046FFF7D3FF10BD04
:100B1000D21DD108C9000CC9CCE7000000000000BC
:100B200030000000F8B50F460188090502D5224CB7
:100B30007C4402E0204C7C440E34054600212435E0
:100B400008E016071209360FA65D6E541E073243E1
:100B50001B09491C16461E43F3D122460478002384
:100B6000240705D5702F06D0002901D002231132A9
:100B7000FFF781FEF8BD01231032F9E770B5044696
:100B80000D4621461068FFF744FE00230246294621
:100B90002046FFF7C7FF70BDD21DD308DB000CCB8A
:100BA000C0E730B40368202412682343036008239D
:100BB000C36130BC0023B5E74851000001468008FE
:100BC000081A02091018020A1018020C1018C0089E
:100BD000820012185200891A01E0401C0A390A29C1
:100BE000FBD270470B4670B5024689078008084360
:100BF00019469D08141AA941250908070543080943
:100C00002C194841250A01060D43010A2C194141BE
:100C1000200C0D0428430D0C00194D4100214019F2
:100C20004D41C00869070843E908840F8D0025433A
:100C3000840024184D4124196D41121BAB4107E07B
:100C40000925ED432C11521963410024401C6141D8
:100C50001C460A250026551BB441F1D270BD000088
:100C6000FFB50C461E468FB003CA089009914F008D
:100C70007D0D00D16D1E002108460020C0460321D5
:100C8000099A89050840002A03DA82008018400882
:100C90000840800D01280A9002DD0020C0430A9020
:100CA000089807430DD0F048F04928184843071426
:100CB000189800281DD07542291E1DDD0A98424251
:100CC0001BE01898012802D00020302104E0002009
:100CD000F24305E02154401CB042FBDB30460022C9
:100CE000189B002121540F998B600A60486013B053
:100CF000F0BDBD1B6D1CDFE70A9A002900DA6942CE
:100D00000BA800F0E1FB0BAB07CB03AB07C30899C3
:100D1000099800F045FC6B4607C30146D448091802
:100D2000002D00910BDDD24903980A9A49424018E0
:100D3000002303A90390684600F0A2FE08E003998F
:100D40000A9A0023081803A90390684600F042FE9F
:100D50006B4607C30004000C03D00020C0434108C9
:100D600000E01046189A002A03D00022009215468F
:100D70001EE0751E05D4FFF735FF303262556D1E3B
:100D8000F9D501220843079602D000227F1C04E017
:100D90002078302801D100227F1E002A069787D0B4
:100DA0001EE0112D07DAFFF71DFF303262556D1C72
:100DB00002460A43F5D1084303D00098002819D011
:100DC0000EE00021681E05E0235C625C635422543F
:100DD000401E491C8142F7DBA81B401E0795069068
:100DE000079A18990020A0540F98079B069A8160D3
:100DF0000CC07CE711260020189059E7D21DF0B5F1
:100E00000D460446D10893B0C90003C90C900D915A
:100E100004F0CCFE02460D98C00F01D02D2007E053
:100E20002068810701D52B2002E04007C00F400158
:100E3000032A0F9001D0072A05DB034629462046E6
:100E400000F0FEFA0EE12078800601D5E76900E0A7
:100E500006272846652D04D0662814D0672D69D151
:100E60002DE00020112F009001DB112300E07B1CFE
:100E70000CAA03A910A8FFF7F3FE119900261098F9
:100E80007D1C0E9142E001203B460CAAC0070B904E
:100E90000120009003A910A8FFF7E2FE119D12980F
:100EA0001099002600280E9501D1781C0D18781B8A
:100EB00002D446427D1C761EE81B00903AE0012FCA
:100EC00000DA01270020112F009001DD112300E03E
:100ED0003B460CAA03A910A8FFF7C2FE11993D4694
:100EE000109800260E91217809070BD40E99A9427B
:100EF00000DA0D4603A9012D04DD4A19203AD27FFC
:100F0000302A06D0B84201DA011D04DA012100912D
:100F10000FE06D1EEFE7002802DC86192D1A03E0B2
:100F2000411CA94200DD0D46801B401C00900120A1
:100F3000C0070B902078000705D40098A84202DB78
:100F40000020C043009069460020C8720B98012120
:100F500002AF0337C907884225D0022010902B200A
:100F600011900B9800280BDA40420B902D20119025
:100F700006E00B98FFF722FE30317F1E0B90397090
:100F80001099481E00291090F3DC0B980028F0D12E
:100F900011987F1E38702088000501D5452000E09B
:100FA00065207F1E387001A8C01BC01D0B900F98D4
:100FB000002800D0012041190098C01709180B988B
:100FC0000818A169081A401EA0612078C00602D442
:100FD0002046FFF7EEFB0F98002805D06268A16855
:100FE0009047206A401C20622078C00625D5204604
:100FF000FFF7DFFB21E0002E07DB0E98B04204DD97
:1010000003A86268805DA16802E06268A168302080
:101010009047206A761C401C20620098401E0028E1
:1010200000900AD100F008FAC06862680168405C6C
:10103000A1689047206A401C206228466D1E002847
:10104000D9DC07E062683878A1687F1C9047206A85
:10105000401C20620B99481E00290B90F2DC2046B0
:10106000FFF7BDFB032042E601FCFFFF104D00002F
:10107000E1DFFFFFD21DF0B504460D46D0088DB06C
:10108000C000466807683146384604F08FFD0246C6
:10109000F00F01D02D2307E02068810701D52B2315
:1010A00002E04007C00F43016846002B037001D0E7
:1010B000012000E00020032A0A9001D0072A04DB67
:1010C0002946204600F0BCF92DE12078800601D4A5
:1010D0000D2500E0E5697000400D0D2D01904BDA03
:1010E000300D00210B9008460020C04603218905E1
:1010F0000840002E05DA82008018C20F1018401038
:1011000008408015012801DD0020C043A90000230C
:10111000182906D39C460A460123183A1B07D340D8
:1011200003E001221205CA4094460C31202902D363
:101130003A46203900E032468A40002802DD002A83
:1011400006D119E0002817D10121C9078A4213D31B
:10115000194663467F185E41002806D10120C0076A
:10116000824202D1084687439E430B98310D81424B
:1011700002D00198401C01902088000502D57149D9
:10118000794402E06F49794419396B460A98302254
:101190001A540A980A7C401C1A54401C0A90019860
:1011A000002801DC302000E031201872019A012073
:1011B000002A02D0644BD21804E072003A4302D0F5
:1011C000614A521C0192002D02DC2278120703D5DD
:1011D0006A462E20507202200022864694460CE079
:1011E00032033601120F6D1E8B5C02AA1354624645
:1011F000521C401C9446052A01DA002DF0DC002226
:1012000002AE08E03B0F3F01CB5C521C6D1E335415
:10121000401C082A01DA002DF4DC23689A0601D567
:1012200011E0401E704504DD3218203AD27F302A8A
:10123000F7D0002807DD3218203AD27F2E2A02D1BB
:101240001A0700D4401E002D03DD3E223254401CFC
:101250006D1E497C31540199401C002906DA2D216C
:10126000471C315401984042019003E02B21471C58
:10127000315401987D21C900884206DBFFF7A8F9A7
:101280003030F0557F1C019101E0642808DB0198A3
:101290006421FFF79DF93030F0557F1C019101E08A
:1012A0000A2806DB01980A21FFF792F93030F05541
:1012B0007F1C01980A21FFF78BF93031F1550A980C
:1012C000A1697F1C7A191018081AA0612078C0063D
:1012D00002D42046FFF76DFA216A6E460A98081874
:1012E000206204E062683078A168761C90470A9812
:1012F000401E0A90401CF5D12078C00602D5204639
:10130000FFF757FA02AE09E03078761C3E280DD080
:101310006268A1689047206A401C20627F1EF3D259
:101320002046FFF75CFA0DB00320F0BD206A40199B
:10133000206203E06268A168302090476D1EEDD303
:10134000F8E70000334B000001FCFFFF10B54369D4
:10135000002B02D0C046C04601E0FFF763FA01202F
:1013600010BD1278014624310A7000224A70012211
:10137000ECE711680022D243E8E710B54369002B7F
:1013800002D0C046C04601E0FFF7FEFA012010BDC2
:1013900012880146243182840022C2840122ECE7B3
:1013A00011680022D243E8E7F8B516460C46054618
:1013B00000F03AF80368FF200230C05C012807D033
:1013C000FF2C0FD8185D00280CD001202C70F8BD20
:1013D000FF333246214608331868C71828460023D1
:1013E000B847F8BD0020C043F8BD754600F0A0FB2B
:1013F000AE46050069465346C008C000854618B091
:1014000020B5FEF761FF60BCB64600260027C0C5C8
:10141000C0C5C0C5C0C5C0C5C0C5C0C5C0C5403DAC
:10142000490849008D46704710B500F005F8001DC9
:1014300010BD00BFE14700000048704738000020A1
:10144000F8B51F46044601230068DB020326014667
:101450001840072A05DB002801D017A506E017A5CC
:1014600004E0002801D016A500E016A51020814355
:101470002160A069C01E002FA06101D0401EA061A4
:101480002046FFF796F9002F09D038466268A16818
:101490009047206A401C2062C01C206206E0206A3F
:1014A000FAE762682878A1686D1C9047761EF8D22A
:1014B0002046FFF794F9F8BD4E414E006E616E0074
:1014C000494E4600696E6600F7B516468AB0334845
:1014D00078446C4603467C33C06F5A689B680DC4E1
:1014E0002E487844763003AC0DC80DC43720C001B7
:1014F000081837211B30FFF76BF805460C46803D76
:101500001B3C02D56442012000E000200027099026
:1015100010E0E0070CD00C20204978437944324693
:101520004C3941186846012300F054FA6B4607C352
:1015300064107F1C002CECD1184F7F442E3F16E026
:10154000E80712D02001C0190EC80691089307922F
:101550000068F04201D1981908903246012306A98B
:1015600003A800F037FA03AB07C36D10641C002D0D
:10157000E6D10998002806D032466946012303A81F
:1015800000F07EFA05E001233246694603A800F028
:1015900021FA0A9B07C30DB0F0BD0000F847000018
:1015A000034640000A4610B5400D0BD00121C90783
:1015B0000F24A40200191C0364082143540D214385
:1015C000D20207E000210120F2E7D40F49002143B5
:1015D0005200401E0029F8DADB0FDB07184310BD6C
:1015E000FFB50D46144685B04868516804F0C5FA49
:1015F00000910190A868A16804F0BFFA02910390DD
:10160000A868616804F0B9FA029A1218824202923C
:1016100001D2012000E00020019A0B18D218002806
:10162000019202D08A4202D903E08A4201D201200B
:1016300000E000200099081800906868A16804F094
:101640009CFA029A12188242029201D2012000E012
:101650000020019A0B18D2180028019202D08A4269
:1016600002D903E08A4201D2012000E00020009963
:10167000081800902868216840004900400849087F
:101680004018FA49471814E001994000C90F08436F
:101690000090019802994000C90F084301900298F8
:1016A00003994000C90F08430290039840007F1E31
:1016B000039000980028E7DA0898002801D0EC4E43
:1016C00000E00026B74201DA012000E000200028F7
:1016D00004902AD0F71BF806C00E15D0029B2021DB
:1016E000091A039A8B401A430392029A019BC24043
:1016F0008B401A430292019A009BC2408B40009992
:101700001A430192C14000917B110DD06F46032016
:10171000C11A03D500218200B95003E08A0081007C
:10172000BA587A50401EF3D53746039802990028DC
:1017300000D00120014308980291002808460CD0EF
:10174000002800D001200199019A49050843012190
:10175000D20AC902D202019200E001210E9B0122AD
:10176000D207012B02D0002B03D013E0002807D1B1
:1017700020E0904204D890420CD1019B0B4209D04A
:10178000019B5918019105D10099491C009101D183
:101790007F1C009200280DD0102108460020C04672
:1017A0000498002806D00F98002803D00821084686
:1017B0000020C04628682168019B009A4840C10F5C
:1017C0000598C90739430EC009B0F0BDFFB587B011
:1017D000099A0898089953689268406889689646FB
:1017E0000022039317469446089A12685300099AF8
:1017F0005B081268520052089A1A9E4BD4180A9A33
:10180000002A01D0352200E0402206920022012366
:1018100015460492DB07059324E0002D05D175469B
:101820000346039E4D1BB34109D375466646039B91
:10183000491B049D9841059B7519AC465F41634661
:101840003B4308D0059B049EDD0776082E435B08CA
:101850000496059301E0521E641EC50FED0749185A
:101860004041521C069B9A42D7DB002D04D175469D
:10187000039A6B1A824101D203200CE0039A0B46B3
:101880006B404240134303D0014303D0012002E0E8
:10189000022000E0002061460191002100970291A2
:1018A0000A99002905D0614640020143704B01911D
:1018B00002E08007002302909C4201DA012000E050
:1018C000002007003AD01A1BD006C00E15D0029D8A
:1018D0002021019C091AC5408C402543029C8C4064
:1018E00000D001242543019C0295009DC4408D40F9
:1018F00000992C430194C140009154111DD06D46B4
:101900000221002202290CD10320001B07E000283D
:1019100004DB8600AE59002E00D00122401C0328B3
:10192000F5DB081B02D588002A5004E08000285807
:1019300010438A00A850491EE3D51C460A98002887
:1019400002980CD0002800D001200199019A490585
:1019500008430121D20AC902D202019200E001210A
:10196000109B0122D207012B02D0002B03D013E0E1
:10197000002807D11FE0904204D890420CD1019B6F
:101980000B4209D0019B5918019105D10099491CBE
:10199000009101D1641C009200280CD0102108464F
:1019A0000020C046002F06D01198002803D008213F
:1019B00008460020C04608980999019A009B0068D3
:1019C00009684840C10F0798C907214382600AC0CF
:1019D0000BB0F0BD00B585B0019300920A460146F8
:1019E000002302A8FFF7FCFD02A807C805B000BD50
:1019F000FFB50A461F4685B0079901930123009160
:101A0000014602A8FFF7ECFD02990398049ECA0F55
:101A10004900D20700920F22490892028C1A002135
:101A2000002800DB0C46450013486D08844214D39F
:101A3000079A002A04DA441E0026104DF64302E0FD
:101A400004460D460E46102108460020C046002FD1
:101A500003D0042108460020C0462005E90A0843B7
:101A6000009908436905F20A1143ADE602C0FFFF81
:101A7000013C0000FF3F0000FF070000FFFFFF7F69
:101A800000B585B0019300920A460146002302A8E2
:101A9000FFF79CFE02A807C8A8E7FFB50A461F4645
:101AA00085B00799019301230091014602A8FFF731
:101AB0008DFE02990398049ECA0F4900D207009236
:101AC0000F22490892028C1A0021002800DB0C46E4
:101AD000450011486D08844214D3079A002A04DA9D
:101AE000441E00260D4DF64302E004460D460E4608
:101AF000102108460020C046002F03D004210846CC
:101B00000020C0462005E90A0843009908436905FA
:101B1000F20A114358E60000FF070000FFFFFF7FB5
:101B200010B50446C046C0462046FEF7A1FB10BDD6
:101B3000004870471800002082078B079A423FD167
:101B400070B5920F0AD0032402780B78401C491C10
:101B5000002A33D09A4231D12042F5D1214EF401EE
:101B600004C808C9951B9543254018D19A420FD146
:101B700004C808C9951B9543254010D19A4207D146
:101B800004C808C9951B9543254008D19A42E7D05F
:101B900012BA1BBA01209A4200D2404270BD12BA5A
:101BA0001BBA2DBA18241000E0401900E140401A79
:101BB00005D12E00E64002D1083CF4D1D01A70BD08
:101BC00002780B78401C491C002A09D09A4207D1A0
:101BD00002780B78401C491C002A01D09A42EFD0B1
:101BE000D01A70470101010101491820ABBEFEE780
:101BF000260002007047F0B583B0052004071021CD
:101C0000009100262046324600F0E1FC04272046E1
:101C10003946324600F0DBFC2025012201922046A5
:101C2000294600F0D4FC20462946324600F0CFFC7D
:101C3000204602973946324600F0C9FC2046294624
:101C4000019A00F0C4FC20462946324600F0BFFC51
:101C500020463946324600F0BAFC20462946019F0C
:101C60003A4600F0B4FC20462946324600F0AFFC6C
:101C700020460299324600F0AAFC204629463A4600
:101C800000F0A5FC20462946324600F0A0FC204684
:101C9000029F3946324600F09AFC20462946019AB6
:101CA00000F095FC20462946324600F090FC204684
:101CB0003946324600F08BFC20462946019F3A46C1
:101CC00000F085FC20462946324600F080FC204684
:101CD00002993A4600F07BFC204629463A4600F03D
:101CE00076FC20462946324600F071FC20460299D7
:101CF000324600F06CFC204629463A4600F067FC6C
:101D000020462946324600F062FC204600993A46B9
:101D100000F05DFC03B0F0BDF0B583B00520040712
:101D20001021009100262046324600F050FC042786
:101D300020463946324600F04AFC20250122019215
:101D40002046294600F043FC20462946324600F052
:101D50003EFC204602973946324600F038FC2046C9
:101D60002946019A00F033FC20462946324600F00D
:101D70002EFC20463946324600F029FC20462946F2
:101D8000019F3A4600F023FC20462946324600F0E7
:101D90001EFC20460299324600F019FC20462946D6
:101DA0003A4600F014FC20462946324600F00FFC6B
:101DB0002046029F3946324600F009FC204629465B
:101DC000019A00F004FC20462946324600F0FFFB51
:101DD00020463946324600F0FAFB20462946019F4C
:101DE0003A4600F0F4FB20462946324600F0EFFB6D
:101DF000204602993A4600F0EAFB204629463A4638
:101E000000F0E5FB20462946324600F0E0FB204684
:101E100002993A4600F0DBFB204629463A4600F09C
:101E2000D6FB20462946324600F0D1FB20460099D9
:101E30003A4600F0CCFB03B0F0BD0000F0B581B035
:101E4000009106460520070710250124384629463B
:101E5000224600F0BCFB20213846224600F0B7FBAA
:101E600004213846224600F0B2FBFFF755FF042E4E
:101E700003D80948805D09490870084A0020D070DD
:101E8000957000995170042102F06CF902F080F80D
:101E900000F006F801B0F0BD605D00088800002089
:101EA000F0B583B0052004071021009100262046DC
:101EB000324600F08CFB042720463946324600F0BB
:101EC00086FB2025012201922046294600F07FFB57
:101ED00020462946324600F07AFB204602973946D2
:101EE000324600F074FB20462946019A00F06FFB51
:101EF00020462946324600F06AFB204639463246E3
:101F000000F065FB20462946019F3A4600F05FFB42
:101F100020462946324600F05AFB204602993246B6
:101F200000F055FB204629463A4600F050FB20467B
:101F30002946324600F04BFB204602993A4600F013
:101F400046FB204629463A4600F041FB20462946FA
:101F5000324600F03CFB2046029F3946324600F0F4
:101F600036FB20462946019A00F031FB20462946DF
:101F7000324600F02CFB20463946324600F027FB63
:101F800020462946019F3A4600F021FB204629467B
:101F9000324600F01CFB20460299324600F017FB47
:101FA000204629463A4600F012FB20462946324692
:101FB00000F00DFB204600993A4600F008FB03B004
:101FC000F0BD80B50120000300F01CFA80BD72B6A0
:101FD000FEE7000070B5044600F002FB0619104D44
:101FE0002868C00305D500F0FBFAB042F8D30320FF
:101FF00070BD29680B480840286003D0CC49486070
:10200000012070BD00F0ECFA04192868400304D5E3
:1020100000F0E6FAA042F8D3E9E7002070BDC04620
:1020200010200240FAC3000080B58EB0684600F070
:1020300079F80698C10110D5012109068843069058
:1020400000F0B2F900F09CF9684600F0C3F800F027
:1020500081F900F087F900F073F90EB080BD00003F
:1020600010B50C4605200007082100F0ABFA002847
:10207000F8D101F039FE002C03D10446FFF7BBFD77
:1020800020460121C90502460A40D30D034C2370A6
:10209000002A02D04A1E1040081A10BD9C000020E1
:1020A00070B5242101244454014624314A78022A7F
:1020B0002BD103681A680E24A2431A601C680122FF
:1020C00094431C60446C2568124B1D402560046CD1
:1020D0001C2525401446AC400F4D2E6826432E602B
:1020E000846CC56C6560046D002C05D025681D40AE
:1020F0002560436D846D5C6000240C704A70816BB8
:10210000002900D08847204670BD0421C1632046C5
:1021100070BDC046FFFEFFFF040002402521405C69
:1021200070470000F0B582B00721016041680129C5
:1021300001D0102200E00C227E4953581F241C407D
:1021400084605258D202D20EC2600A6800920D68B2
:1021500001220192D6064B685B029BB29B19036277
:102160001A4B5F1C8A681740C4691C40E319C3619D
:10217000520292B2164C121942624A69520292B24B
:10218000921982628A69520292B21219C2626A4A32
:10219000426115408561009AD4B2AA2C03D125462C
:1021A000CC2C03D003E0BB25CC2C00D12546056107
:1021B00003221343C361019A1204096E0A403F23AC
:1021C0000B400263436302B0F0BDC046FFFFFF7FD8
:1021D000FF010008F0B585B0554D2978012902D1DD
:1021E000022005B0F0BD00266E6001210491297027
:1021F0000168CA074F4F0BD04168012901D0102157
:1022000000E00C218268C3681B0413437B50016803
:1022100006220A40062A0BD1044610341CCC144373
:10222000FF229343D2435A403B681340234329E0A3
:102230008A070DD44A0726D54269FF239A43DB4318
:1022400053403C683A68E4B2AA2C0FD1039411E0E1
:102250003A6803923C68FF239C433246364E039B08
:102260001E4003693343164623430BE00292BB2210
:102270000392029A1A40CC2C00D103948369039CE8
:10228000234313433B600A072ED5C269049BDB0737
:102290005C1C22421CD00396BE68D40701D1344690
:1022A00012E0056A446A02941F24E40601942D1981
:1022B0006D0A7D607F25AE4300961D4D029C019EF8
:1022C000A419640A009E344313402343BB60039E59
:1022D000920709D51F22D206836A9B185B0A7B618D
:1022E000C36A9A18520ABA61C90607D5396E134AE9
:1022F0000A40016B406B0843104338667D20C400E0
:102300002046FFF767FE00280FD103962E4604985B
:1023100045040C3F3868284338602046FFF75AFED2
:102320003968A9433546039E39602E7005B0F0BD6B
:102330005C0400202020024000FF4F3FC0FFFEFF52
:102340000120C0070D490A6802430A600868C043BB
:10235000C00F70470120C106084A13680B43136081
:102360007047C0460120800704490A6802430A609A
:1023700009680140484248417047C0461420024065
:1023800006488168490001D4012070470449016072
:102390000449016080684000C00F70470C20024073
:1023A0003B2A19087F6E5D4C0648C168002901D49C
:1023B000002070470449016004490160C068C00FF3
:1023C0007047C0460820024023016745AB89EFCD26
:1023D00080B50121090388420ED10520000700F0D5
:1023E000F1F8002808D105480178092904D1002115
:1023F0000170034800F07CFF80BDC046040000204F
:10240000F4010020B0B50446074D2868204203D0EF
:102410002C60204600F00AF86868204203D06C6007
:102420002046FFF7D5FFB0BD0C18024070470000F2
:10243000F0B58AB00B68002B00D1B6E05C4A904240
:1024400001D0062200E005220092024620320192CD
:1024500000270997089707970690049112E02A43EE
:10246000544842607F1C0B681846F840079A0832AF
:102470000792099A921C0992089A121D0892002844
:1024800000D192E001240594BC4023400393E9D09D
:102490004D6810202843122813D11C2008990840A9
:1024A0000F2631468140FA0892000292019DAB58F6
:1024B0008B43049A11693140814019430298295095
:1024C000556803232A461A400998824002938340A4
:1024D00006990E689E43164306990E60069ED843E1
:1024E000122D049916D8059AAA40344B1A420FD0DF
:1024F000B2680240CB6801460998834008460499B7
:102500001343B3602A09BA407368A343134373604B
:10251000032DA7D0F26802408B68099883401343CB
:10252000F360EA009ED53A4602988243214880181B
:10253000046E0522120796420CD0E04A964206D05D
:102540001F4A9642009E039D06D1022604E0039D89
:10255000059E01E00026039D1822079B1A400F23C9
:1025600093409C436030964026430660124C23689B
:102570004868C20301D52B4300E0AB432360636886
:10258000820301D52B4300E0AB436360094A136823
:10259000C20201D52B4300E0AB43064A13605268E8
:1025A000800200D55BE7AA435AE70AB0F0BDC046F7
:1025B0000014005000180240801802400600060077
:1025C0000008005000690840411E88417047002AF9
:1025D00002D0182281507047282281507047000095
:1025E000014800687047C046D4110020B0B50246CB
:1025F000034640335C780220202C17D11C78012C34
:1026000014D024205870106802680124A24302608C
:10261000220305689543056002680A430260016869
:10262000214301600020187020215970B0BDB0B561
:102630000246034640335C780220202C17D11C78D8
:10264000012C14D024205870106802680124A24381
:1026500002600F22120205689543090229430160B6
:102660000168214301600020187020215970B0BD1D
:102670007047000080B50268AA4B9A4200D080BD26
:10268000002909D0A8490978A84A126851180122DE
:10269000130600F0C1F980BD974909780029EED1F1
:1026A00001221306A04900F043F980BDF0B581B0C6
:1026B0000122150201688B691C462C406642664166
:1026C0000F6880243C4067426741374304D1466C21
:1026D000012737434764CD61654265415E05164673
:1026E00000D52E46002E05D19502466C08273743AB
:1026F0004764CD61654265419B05134600D52B4675
:10270000002B05D15202436C02241C434464CA616D
:10271000416C0B22114201D001F08AF801B0F0BDEA
:1027200080B502689169436B1268002B00D098470E
:1027300080BD00004121415C20290CD1014641317E
:1027400028220A70EE49416300680168B8220A43F2
:1027500002600020704702207047C04670470000AA
:10276000F0B581B0002822D00546403569780029AF
:1027700005D100212970044600F058F82046242194
:10278000697001680B68012293430B600F231B06DD
:1027900044689C430C618C68D74B1C408C608468F7
:1027A000C668012E06D1D60334438C600CE00120AC
:1027B00001B0F0BD2127BF023C438C60022E03D143
:1027C000D4024E68264302E0D4024E68A6434E600F
:1027D0004C680E4E26434E60CC681C40CC600369AA
:1027E00044691C4383691B022343CB60C369046AA9
:1027F0001C430C600B6813430B60002141642022D2
:102800006A7001630846A97001B0F0BD0080000243
:1028100080B50168434A914200D080BD4249002200
:102820000A7035490A70FFF785FF80BDB0B58EB0DC
:1028300000240D940C940B940A9409940894079422
:10284000069405940494039400683649884201D0A4
:102850000EB0B0BD4020029002A800F0C9F90028D7
:1028600001D0FFF7B4FB144D28680221084328600B
:1028700028680840019006200D900C940B941220BB
:102880000A90C020099001980C4809A9FFF7D0FDD3
:1028900001204005A9680143A960A9680140019190
:1028A0000198172528462146224600F085F928463A
:1028B00000F076F90EB0B0BD3410024000040050B4
:1028C00080B50168174A914200D080BD0A490A7854
:1028D000002A04D0144A1178491C117003E0012227
:1028E0000A7011490978C9B2104A126851180122B8
:1028F000130600F01DF880BD0401002080B50168BA
:10290000084A914200D080BD07490A78521C0A70DB
:1029100006490968D2B2891801221306422200F042
:102920007BF880BD0054004058040020FC040020C7
:10293000F0B587B00693054640356C7828273C40B3
:10294000282C0FD100290FD0002A0DD06C780368F5
:102950001E68FC240594A6431E602E78012E07D124
:10296000022455E0012453E00124610241644FE058
:10297000012404942C706E78292E28D16E783E4064
:10298000F227FF43282E00D1B0371E683E401E605C
:102990001E6876041BD5049CA6031F68B7431F60FE
:1029A000846B002C13D0554EA663039020460191F2
:1029B0000292FFF775FB029A019904460398002CD6
:1029C00005D0806B816B8847029A019903982A246D
:1029D0006C702024AC7000244464049BDB03076803
:1029E0007E689E437E604285428D069BC362416243
:1029F000434941630285B869B969C90303D4082111
:102A0000084000D0F9612C70386805990843386097
:102A1000204607B0F0BDC046F0B585B0049305462A
:102A200040356C7828273C40282C0FD100290FD046
:102A3000002A0DD06C7803681E68FA240394A6431C
:102A40001E602E78012E07D1022452E0012450E0AE
:102A50000124610241644CE001262E706E782A2E1A
:102A600027D16E783E40F427FF43282E00D1B0379F
:102A70001E683E401E601E6836041AD51E681E4C35
:102A800026401E60C46B002C13D01C4EA66302901F
:102A9000204600910192FFF703FB019A009904463A
:102AA0000298002C05D0C06B816B8847019A009971
:102AB000029829246C702024AC70002444640768B8
:102AC0007E680D4B1E407E604285428D049BC36232
:102AD00041620B4941630285B869B969C90303D5ED
:102AE0000821084000D0F9612C7038680399084328
:102AF0003860204605B0F0BDFF7FFFFF613700085A
:102B00007D3B00081A48007802490A6810180860DE
:102B10007047C046D411002080B5032000F008F8AB
:102B2000002801D0012080BD00F024F8002080BDE5
:102B3000B0B505460E4801780124002916D07D2045
:102B4000C00002F01FFF0146DD48006802F01AFFD6
:102B500000F0E4FA032D09D8002807D10024E0434F
:102B60002946224600F028F8D64805602046B0BD28
:102B70000C00002082B009484168012211434160E5
:102B80004168114001910199110702680A430260EE
:102B9000006808400090009802B070473C10024066
:102BA000002805D41F21084001218140014801600F
:102BB0007047C04600E100E0002805D40322034628
:102BC00093430A4A9A1803E00C220240064BD2189B
:102BD0008007C00E8901C9B28140FF23834010687D
:102BE000984308431060704714ED00E000E400E0F3
:102BF000F0B585B0044601688803444E03D4002034
:102C0000CA0739D140E0012001073746203F3A6822
:102C100003910A40029207D13968039A114339603F
:102C20003968114004910499032101910A02316825
:102C3000114010D0A26991420DD031680004326871
:102C4000024332603268824332600846304A1040A4
:102C50003060C8074CD130682D490840A169014354
:102C6000316000200299002903D13968039A914309
:102C700039602168CA0707D03246083A136803252D
:102C8000AB43A5681D4315604A0607D44A0410D417
:102C90000A0519D4002922D405B0F0BD032212037D
:102CA0003346083B1D689543E2682A431A604A048C
:102CB000EED5032292073346083B1D6895436269AF
:102CC0002A431A600A05E5D5032292033346083BDE
:102CD0001D68954322692A431A600029DCD55C3EB1
:102CE0003168E022914362680A43326005B0F0BD6A
:102CF000FFF776FC054630688007ACD4FFF770FC20
:102D0000401B6B498842F6D90198ABE75C10024042
:102D1000FFFCFFFFF0B583B00D46014601200029FE
:102D200000D188E002910190604800680727384090
:102D3000854213D95D490868B84328430860F64CBA
:102D4000FFF74EFC0646594800683840A84205D0B7
:102D5000FFF746FC801BA042F5D987E0029B18686C
:102D60008107544C10D5410707D57B210902226801
:102D70008A430B210902511821600F2109022268A0
:102D80008A43D96811432160C00718D147480068B9
:102D90003840854227D245490868B843284308602F
:102DA000DD4CFFF71DFC0646404800683840A8424D
:102DB00019D0FFF715FC801BA042F5D956E022463A
:102DC000083A10681C2188439968014311605968CA
:102DD000002932D0032901982AD0012949D112684B
:102DE00092032ED427E0029B18784007314A05D57C
:102DF0003803116881431869084310601068800621
:102E0000400F06D0116838200140082909D12A480E
:102E10003BE01046083800688004410FBB48C840BA
:102E200033E011680140202927D10120C0032CE0A4
:102E3000A26D920705D403B0F0BD1068400501985B
:102E4000F9D52068B84308432060FFF7C9FB064660
:102E500020683821014002984068C000814295D026
:102E6000FFF7BEFB801BAC498842F1D9032003B0B9
:102E7000F0BD626D9207DED5E3E7116801401829C5
:102E800001D0002001E07D200002116889093C2268
:102E90000A400A4989581F220A40D0409C490860CC
:102EA0009C480068FFF744FE03B0F0BD00200240DC
:102EB000881300000810024000127A00685D0008C4
:102EC0000000002010000020F0B581B00446012071
:102ED000002C00D116E100902078C0078A4E07D060
:102EE000B068382202406168082A39D1002970D0C0
:102EF0002078800713D42078000709D5B0683822DD
:102F00000240A169182A67D10029009800D1F9E090
:102F100020780025400734D4284601B0F0BDE2688F
:102F2000B0688006400F36D0306801218F02002A39
:102F300072D00722D2029043226902433260080213
:102F4000316801433160FFF74BFB0546306838427A
:102F500000D089E0FFF744FB401B0228F6D980E04F
:102F6000306801235F041A04914207D005252D041F
:102F7000A94262D199040843306030681043306040
:102F800063E0B06838220240A168202A37D1484265
:102F9000484101B0F0BD002A1BD07F2000027168BB
:102FA000814360690002084370600720C0023168F5
:102FB000814320690843306030688004400F5349E2
:102FC000C1405348016053480068FFF7B1FD002835
:102FD00091D0009801B0F0BD306E00294DD0012194
:102FE00008433066FFF7FCFA0546306E80078FD441
:102FF000FFF7F6FA411B03200229F6D982E0F06DB3
:10300000012905D0052949D104210843F065F06D57
:1030100001210143F1654AE0090288433060FFF76E
:10302000DFFA05463068384200D164E7FFF7D8FA86
:10303000411B03200229F5D964E0904330609804D5
:10304000326882433260002940D0FFF7C9FA054652
:103050003068384200D04BE7FFF7C2FA401B6428C3
:10306000F6D9032001B0F0BD7F20000271688143D2
:1030700060690002084370603DE7012188433066C3
:10308000FFF7AEFA0546306E800700D440E7FFF741
:10309000A7FA411B03200229F5D933E0012290430E
:1030A000F065F06D04229043F06500291CD01A4FA2
:1030B000FFF796FA0446F06D800700D52CE7FFF77E
:1030C0008FFA011B0320B942F5D91BE0FFF788FAFC
:1030D00005463068384200D10AE7FFF781FA411B04
:1030E00003206429F5D90DE00B4FFFF779FA044668
:1030F000F06D800700D40FE7FFF772FA011B032081
:10310000B942F5D901B0F0BD00100240006CDC02FC
:10311000000000201000002088130000401E010E57
:1031200001D0012070470749074A506007480368EB
:103130000B40032189075918016000209060072186
:1031400011607047FFFFFF0010E000E020ED00E09D
:10315000704770477047000070B53C22825C012ABE
:1031600001D1022070BD02463C3202235370006838
:1031700045688368704CA04201D02E4604E00F26BB
:103180003605B5434E682E437025AE430D68354372
:103190004560A04202D0694CA04204D18024A343E0
:1031A000896819438160002010700121517070BD41
:1031B000B0B5002819D005463C356978002905D1FD
:1031C00000212970044600F055F82046022169705C
:1031D00001680C68584A914202D0584B994206D176
:1031E00070239C438368234302E00120B0BD234643
:1031F0001D4CA14208DD91420CD01C4CA14209D0CB
:103200001B4CA14206D02DE04C4CA14202D0364CC2
:10321000A14227D103242402A34304691C43802331
:103220009C43836923430B60C368CB6243688B6212
:10323000914205D00D4A914202D00D4A914201D1EE
:1032400040690863012048612873A870E8702871FC
:103250006871A871E87128726872A872E872687063
:103260000020B0BD1C46DAE7FF2B014000480140BA
:103270000044014010B584B00068304988421DD038
:10328000194988420ED02C4988422AD10120C00217
:1032900016490A6802430A600968014003910398CD
:1032A00004B010BD0120C00310490A6802430A603F
:1032B000096801400191019813240AE00B48001F9E
:1032C00001680222114301600068104002900298D8
:1032D0001024002120460A46FFF76EFC2046FFF727
:1032E0005FFC04B010BDC04600200040401002400A
:1032F00010B53D21415C01291CD101463D3102221E
:103300000A700168C86801221043C8600A488142F7
:1033100002D00A48814208D18868094B0340002046
:10332000062B06D01404A34203D00868104308609B
:10333000002010BD012010BD002C01400004004001
:103340000700010010B50268D36801218B43D360E8
:10335000136A074C234206D1136A064C234202D15A
:1033600013688B4313603D228154002010BDC0467A
:103370001111000044040000F0B53C22825C012AD7
:1033800001D10220F0BD02463C3202235370046892
:10339000A0684B4B0340A3600D6800234F2D1EDC3B
:1033A0001F2D37DD202D39D0302D37D0402D00D0C6
:1033B00083E0206A256A0126B5432562A569F026C7
:1033C000B543CE6836012E43A6610A25A843496855
:1033D00001432162A0683B490140473167E06F2DFE
:1033E00024DD01204603B54252D000038542184631
:1033F0005FD0702D61D1FF200002A5688543486829
:103400008E68C9680643080230432843A060A0685C
:1034100077214BE0002D01D0102D4ED1A068294915
:1034200001400D4307202843A06041E0502D19D0F2
:10343000602D42D1206A256A1026B54325620F25EA
:103440002D03A669AE43CD682D033543A561A025A4
:10345000A8434968090101432162A0681949014054
:10346000673124E0206A256A0126B5432562A569F3
:10347000F026B543CE6836012E43A6610A25A8433F
:10348000496801432162A0680E49014057310EE0AE
:10349000FF252D02A668AE434D688F68C9682F438B
:1034A000090239433143A1608003A1680143A1604F
:1034B0001846137001215170F0BD0120F9E7C04694
:1034C0008800CEFF88FFCFFF70470000F0B583B0C3
:1034D00004460068C5680227294639404A424A41E5
:1034E0000169029139404B424B41134313D16B495F
:1034F000FE310161012121778069800703D02046D8
:10350000FFF7E2FF05E0204600F0CAF8204600F091
:10351000C8F800202077012604222946114048429D
:10352000484102994907314600D50146032000026F
:103530000190002916D1009220685849FC310161A0
:10354000277780690199084203D02046FFF7BCFF26
:1035500005E0204600F0A4F8204600F0A2F8002084
:103560002077009A08272946394048424841029965
:103570000907314600D50146002913D12068474983
:10358000F83101612277C069800703D02046FFF738
:103590009BFF05E0204600F083F8204600F081F80C
:1035A0000020207710212940484248410299C9064D
:1035B000314600D50146002914D120683749F03141
:1035C00001612777C0690199084203D02046FFF7BF
:1035D0007BFF05E0204600F063F8204600F061F82C
:1035E0000020207701212940484248410299C9071B
:1035F000314600D00146002906D120682749FF3115
:103600000161204600F04EF880272F407842784133
:1036100002990906314600D50146002906D12068E5
:103620001E49803101612046FFF793FD78427841C1
:103630000299C905314600D50146002905D1206807
:10364000164901612046FFF783FD40212940484289
:10365000484102994906314600D50146002906D164
:1036600020680E49C0310161204600F065F8202035
:103670000540684268410299890603D4002E04D0AF
:1036800003B0F0BD0646002EFAD120680349E031B0
:1036900001612046FFF75EFD03B0F0BDFFFEFFFFB6
:1036A0007047704770B51D49096802688A4229D180
:1036B0001B4E3178491C3170C9B209290FD1174806
:1036C000FFF740FE1A480168164A1278194B5A54FF
:1036D000491C016020291AD30021016070BD0446F5
:1036E0000520000701252903FEF76CFF3178491EEC
:1036F0008D400C490A78002801D02A4300E0AA43F3
:1037000020460A70084909680068884200D070BDE8
:1037100006480168491C016070BDC046F4010020E4
:103720000400002008110020A801002050110020F2
:10373000041100200C1100207047FEE780B50748F7
:10374000006880694005400F03D00448FEF7AEFFD3
:1037500080BD0248FEF7E4FF80BDC046080100209E
:1037600080B5806A816B002901D000228A630146FE
:103770004031C26B002A01D0002393634A78602A4B
:1037800007D120224A7000220A700263FEF770FF00
:1037900080BD00220A700263FEF7E0FF80BD0000DA
:1037A000F0B581B006464036717828220A40056897
:1037B000282A1AD1A969AC69AB68EA680092FE228E
:1037C000240CC903C90FC768022F14D1DF09674051
:1037D0007C07A40F1BD0009B1340002232702A6884
:1037E000B824A2432A601A460DE000203070082059
:1037F000E86101B0F0BD002333702B68B826B343F5
:103800002B6014402246FEF735FF01B0F0BD826CFC
:10381000521C8264826C022AEBD1044C1A4622406C
:103820000023836433700823EB61ECE7FF0300009F
:1038300070B50446054640356A780020A870AD4B47
:10384000E3626085636C0B4363646978283A022AFB
:1038500016D86B7828200340F622D6433246B03281
:10386000282B134600D033460140282900D0324689
:1038700021680E6816401E400E6068703B4822E0CA
:10388000697821680A68FE239A430A608A69920768
:1038900000D588628A69D20703D18A69012313435C
:1038A0008B616A78602A0ED020226A708B699B0631
:1038B00009D58B69DB0605D51023CB61636C042623
:1038C0001E436664CA616063A06B226B00281AD035
:1038D000212A01D0112A16D10A68520404D50122E6
:1038E00092030B6893430B60FEF718FC01281DD070
:1038F00000202870A06B1E498163FEF7D1FB0028D1
:1039000026D0A06B2FE0E06B00280FD0222A01D038
:10391000122A0BD10A68120404D50122D2030B68C3
:1039200093430B60FEF7FAFB012812D168786028F8
:1039300008D1202068700020287020632046FEF700
:1039400097FE70BD0020287020632046FEF706FF1A
:1039500070BD00202870E06B05498163FEF7A0FB75
:103960000028F5D0E06B816B884770BD7D3B000877
:1039700061370008F0B583B005682A680346403314
:1039800002935F7820230193EB61F7263E40FE23EC
:103990000093DB43212E04D0222E04D19B1C22262F
:1039A00006E01B1D04E0282F08D1029C6678002643
:1039B000029C67782F681F402F6006630126F3037F
:1039C0006F681F436F606F68494C3C406C60AC6926
:1039D000A40701D50024AC62AC69E40702D1AC694C
:1039E0003443AC61540409D41A420C4611D02A68FD
:1039F0009A432A60C26B002A08D10AE0B2032B68FE
:103A000093432B60826B002A0C4602D012685268E6
:103A1000428562070ED5426A696A1170416A491C83
:103A20004162018D0024002904D0491E0185418D89
:103A3000491E4185418D002903D0416C04220A436F
:103A400042640026029DAE704663416C00292ED070
:103A5000416C0746FFF7ECFE6878282845D1A0495D
:103A60003846F9623E63019969707E63AE70610702
:103A700012D5416A0268526A0A70416A491C416261
:103A8000018D002908D0428D521E4285491E0185B4
:103A9000416C04220A4342646978697801680A68C3
:103AA000009B9A430A602E701022CA6117E0C16A17
:103AB0008B4FB9420AD16978019A6A702E700663F9
:103AC000222910D1FEF7FCFE03B0F0BD044600F041
:103AD00013F8E762019868702E7026632046FEF79F
:103AE00097FE03B0F0BDFEF709FF03B0F0BDC0467E
:103AF00000E800FE0000FFFFB0B501680C68024658
:103B0000403200239370650403D4240405D51A4C75
:103B100000E0184C0D6825400D605478292C0CD11C
:103B20002824547021250563137053782340F42210
:103B3000D243282B16D0921C15E054782A2C10D191
:103B40002824547022250563137053782340F422EF
:103B5000D243282B00D1B0320B6813400B60FEF724
:103B6000AFFEB0BDB2320B6813400B60FEF7C6FE6D
:103B7000B0BDC046FFBFFFFFFF7FFFFFF0B583B0C2
:103B80004023C35CC66A012B02D1022003B0F0BD02
:103B90000546403501272F700A4093060DD504468F
:103BA00002950D46019737461646FFF7E3FE32466B
:103BB0003E46019F2946029D2046D30616D4510752
:103BC00025D411076CD491076CD5418D002900D103
:103BD00080E00168426A13788B62511C4162018D5A
:103BE000491E0185418D491E41855BE0428D002AB9
:103BF00026D001681022CA61416C04220A43426443
:103C000036490E424ED1416CFFF712FE4AE0418D1B
:103C100000290CD0416A0268526A0A70416A491C44
:103C20004162018D491E0185418D491E4185418DAD
:103C3000002937D12A498E4234D0FFF75DFF31E0A9
:103C40006B78274A282B31D17B069E422ED1C26247
:103C50000022026320236B704263AA70490712D5C9
:103C6000416A03685B6A0B70416A491C4162018DBD
:103C7000002908D0438D5B1E4385491E0185416C98
:103C800004230B4343646978697801680B68FE2458
:103C9000A3430B602A701022CA61FEF7B9FD01E050
:103CA000FFF77EFD0020287003B0F0BD6B7801683F
:103CB0001024CC61292BF5D19642F3D08A69920762
:103CC00001D500228A628A69D207B6D18A693A434D
:103CD0008A61B2E701490E42E4D1AEE7FFFFFFFE81
:103CE0000000FFFFFEE77047F0B583B00520040732
:103CF00010210091002720463A46FEF768FC042672
:103D0000204631463A46FEF762FC20250122019208
:103D100020462946FEF75BFC204629463A46FEF738
:103D200056FC2046029631463A46FEF750FC2046A5
:103D30002946019AFEF74BFC204629463A46FEF7F3
:103D400046FC204631463A46FEF741FC20462946CD
:103D5000019E3246FEF73BFC204629463A46FEF7D6
:103D600036FC204602993246FEF731FC20462946B1
:103D70003246FEF72CFC204629463A46FEF727FC41
:103D80002046029E31463A46FEF721FC204629464F
:103D9000019AFEF71CFC204629463A46FEF717FC1E
:103DA000204631463A46FEF712FC20462946019E3F
:103DB0003246FEF70CFC204629463A46FEF707FC41
:103DC000204602993A46FEF702FC20462946324632
:103DD000FEF7FDFB204629463A46FEF7F8FB204653
:103DE00002993A46FEF7F3FB204629463246FEF793
:103DF000EEFB204629463A46FEF7E9FB00F013F8B1
:103E0000029000F010F8074600F00DF80546204635
:103E100000993246FEF7DBFB0298000439020818CD
:103E2000401903B0F0BDF0B589B005200407202586
:103E300000262046294632460896FEF7C8FB012791
:103E4000204629463A46FEF7C2FB4021079120460C
:103E5000FEF7B8FB0590204629463246FEF7B7FB31
:103E60002046294606973A46FEF7B1FB2046079EB4
:103E70003146FEF7A7FB049020462946089AFEF734
:103E8000A6FB204629463A46FEF7A1FB20463146CE
:103E9000FEF798FB039020462946089F3A46FEF716
:103EA00096FB20462946069E3246FEF790FB2046AA
:103EB0000799FEF787FB0290204629463A46FEF70F
:103EC00086FB2046294637463246FEF780FB2046D1
:103ED000079E3146FEF776FB019020462946089A58
:103EE000FEF775FB204629463A46FEF770FB204652
:103EF00037463146FEF766FB009020462946089E6D
:103F00003246FEF764FB20462946069AFEF75FFB21
:103F100020463946FEF756FB0746204629463246DC
:103F2000FEF755FB20462946069AFEF750FB204631
:103F30000799FEF747FB064620462946089AFEF7F2
:103F400046FB0599481E8141C800049A511E8A41CA
:103F500091004018039A511E8A4151004018029A5C
:103F6000511E8A4180188000019A511E8A415100D9
:103F70004018009A511E8A4180188000791E8F4196
:103F800079004018711E8E418019C0B209B0F0BD91
:103F9000F0B585B0052004071021029100272046C6
:103FA0003A46FEF714FB0426204631463A46FEF711
:103FB0000EFB20250122039220462946FEF707FB2F
:103FC000204629463A46FEF702FB20460496314633
:103FD0003A46FEF7FCFA20462946039AFEF7F7FA1E
:103FE000204629463A46FEF7F2FA20463146039E1D
:103FF0003246FEF7ECFA204629463246FEF7E7FA4B
:10400000204629463A46FEF7E2FA204604993A4607
:10401000FEF7DDFA204629463246FEF7D8FA20465A
:1040200029463A46FEF7D3FA204604993A46FEF767
:10403000CEFA204629463246FEF7C9FA20462946DE
:104040003A463E46FEF7C3FA2046049F394601969B
:104050003246FEF7BCFA20462946039AFEF7B7FA25
:10406000204629463246FEF7B2FA20463946039EDC
:104070003246FEF7ACFA204629463246FEF7A7FA4A
:1040800020462946019F3A46FEF7A1FA20460499A8
:104090003246FEF79CFA204629463246FEF797FA4A
:1040A000204629463A46FEF792FAFFF7BCFEFFF794
:1040B000BAFEFFF7B8FEFFF7B6FE20460299324679
:1040C000FEF785FA05B0F0BD704780B5FEF71AFD22
:1040D00080BD00000120C006014908607047C0464D
:1040E00008ED00E080B50248FFF7F0F980BDC0465A
:1040F000A801002080B50248FFF7E8F980BDC0465E
:10410000F401002083B0B0B581B0054605A80EC00B
:1041100005AA0092114C20462946FCF7E7F82046F4
:10412000FCF706FA05460E480168490608D40168FE
:10413000490605D40168490602D401684906F3D549
:10414000002D05D0207800F025FC641C6D1EF9D1EF
:1041500001B0B0BC01BC03B00047C0465411002000
:104160001C440040F0B587B00192009104900520F6
:1041700005071021002728463A46FEF728FA0421B1
:10418000059128463A460297FEF721FA2024012697
:104190000696284621463246FEF719FA2846214659
:1041A0003A46FEF714FA284605993246FEF70FFA0A
:1041B000284621463246FEF70AFA284621463A4664
:1041C000FEF705FA2846059E31463A46FEF7FFF906
:1041D00028462146069AFEF7FAF9284621463A462D
:1041E000FEF7F5F9284631463A46FEF7F0F928463B
:1041F0002146069E3246FEF7EAF9284621463A460F
:10420000FEF7E5F904988007C20F2846059F394656
:10421000FEF7DDF9284621463246FEF7D8F9284652
:104220002146029AFEF7D3F9049A324028463946CD
:10423000FEF7CDF9284621463246FEF7C8F9284652
:104240002146029AFEF7C3F900988701403FF8B271
:10425000C20928460599FEF7BAF928462146324692
:10426000FEF7B5F928462146029AFEF7B0F978061E
:10427000C20F28460599FEF7AAF92846214632467C
:10428000FEF7A5F928462146029C2246FEF79FF933
:1042900000980199002800D198E0029401910878D3
:1042A000C2090646042104912846FEF790F920240D
:1042B00028462146069AFEF78AF9002205922846EA
:1042C0002146FEF784F970063746C20F2846049E41
:1042D0003146FEF77CF928462146069AFEF777F923
:1042E00028462146059AFEF772F9B806C20F2846FD
:1042F0003146FEF76CF928462146069AFEF767F923
:1043000028462146059E3246FEF761F9F806C20F9F
:1043100028460499FEF75BF928462146069AFEF7DF
:1043200056F9284621463246FEF751F938070397D9
:10433000C20F2846049E3146FEF749F92846214619
:10434000069AFEF744F928462146059AFEF73FF9FA
:104350007807C20F284631463746FEF738F9284617
:104360002146069AFEF733F928462146059E324635
:10437000FEF72DF903988007C20F28463946FEF74D
:1043800026F928462146069AFEF721F928462146B5
:104390003246FEF71CF90698039A02402846394631
:1043A000069EFEF714F9284621463246FEF70FF91D
:1043B00028462146029C059AFEF709F90199491CF5
:1043C000641CE0B2009A904200D266E710210122FC
:1043D0002846FEF7FCF807B0F0BD0000F0B585B048
:1043E0000C46491E594E04913160A10002900918F3
:1043F00003911039A21E2546153D0020CB6832607E
:104400001818AA4213DD8B68571E37601818AF4280
:104410000DDD4B68971E37601818AF4207DD0B683B
:10442000D71E376018181039121FAF42E6DC049906
:104430003160142101F0C8FA0399091FA21E0F6808
:10444000C31B00D23B1A012B4ED8091F3260531EEA
:10445000AA421A46F3DC3E490968421AD3175A4069
:10446000D21A022A40D3049A32608F1E022C019085
:1044700029DB03251540A31E002D22D09100029AAE
:1044800052583360BA4200D33A46012D02D1174642
:104490001A4616E09900029F7958E71E0497376084
:1044A000914200D31146022D02D10F46049A08E032
:1044B000049A9200029DAF58221F32608F4200D3AF
:1044C0000F46032B12D2224901980860C11BC80F66
:1044D00008184210FC480260152901DD0A2102E09B
:1044E000032901DC0221016005B0F0BD91001446F2
:1044F000029A8B180C3B241F394605E0103B241F01
:10450000039801283946DED9DF68E21C32609A68D8
:10451000A51C35605868651C0395356035461E68D6
:1045200004962E462C608F4209D2BA420AD290429B
:1045300000D31046049F8742E0D30746DEE70F46CC
:10454000BA42F4D33A469042F3D2F3E74002002055
:1045500050040020F0B58DB00F464D1EA900099102
:104560000C904458D54900200B900860012041026E
:10457000D34E3046FCF71CF8D2480A950560012F4F
:1045800077DBD1480068D1490968081AB900089159
:104590000C9A8918091F0C97BA1E002307E0361DD4
:1045A000521E091F0C9BBB422C463B4617D00D6880
:1045B00085420DD835605F1CC04D2F603C2B0BD061
:1045C0000D68C04B1A60A3B29D42E8D32546E6E7CA
:1045D0000C99052B08DA4CE000200DB0F0BD0C99C9
:1045E0000B462C46052B44DBB948099A8258A0B2E9
:1045F00082423EDD0792B7480D46002202600A99CA
:10460000CC1AAC423ADAE91A5A1C03251746AF43D2
:10461000A400AF4E34592A400B929B00089AD31A3B
:10462000F3180026324604E03F1F1033091D002F07
:104630002AD01D68641BB44202DB01600A4626468C
:104640005C682D1BB54203DB4E1C324606602E46CD
:104650009D68641BB44203DB8E1C3246066026460E
:10466000DC682D1BB542DFDBCE1C324606602E46D1
:10467000DAE70B98914908600DB0F0BD96480992B1
:1046800002609048046025E00B9D002D1BD01D6842
:10469000641BB442174602DB01600F4626460B9AA4
:1046A000012A11D05C682D1BB54202DB4F1C07604C
:1046B0002E460B9A022A07D09A68A21AB24203DB4E
:1046C0008F1C076000E017468348002101600997AE
:1046D000002F24D4099A90007D490E580C18183CDC
:1046E000554204E0241F6D1C012D3E4616D067691B
:1046F000BE42F7DB20680B90231D0ECB2069C0194A
:10470000C018801840180B994018062101F05CF978
:104710008642E7DB69427048016000E000210691B3
:104720000C9A10461E306D4904900860684808993C
:10473000465840180590041F17320A990C9205E05C
:10474000241D0B9B591C0C9A934219DA0B91354688
:10475000A66823460C330FCB7719381840188018F9
:10476000C0180A277843062101F02EF92168A942D2
:10477000E6DB4F438742E3DB0B99584A116001E0C7
:1047800004990B9108905648099F0760059C083CC6
:10479000002238460A9D079EBD4210DD214623684F
:1047A000F41A944203DB4E480560284622466D1EEB
:1047B0000C1F9E421E46EFDCB8421E46ECDDB900DF
:1047C000434E725871180D1D38CD0969D21812194F
:1047D000521951184900434A1160069DA9007258A8
:1047E00071180B1F1B68D2180B46083B1B68D218A8
:1047F0000B460C3B1B68D218103909685118490048
:10480000394A11608200B358B218141F24681B196A
:104810001446083C24681B1914460C3C24681B19D8
:10482000103A12689A185200304B1A603A460B9BA5
:104830001F1A2F480760521B0C922E4802609800E6
:1048400032583018061D68CE0069D41862199219C2
:1048500010184000284A1060461AF01731464140AF
:10486000081A0A25294601F08DF80C9979180818BC
:104870000B900521614308980C1AE017214641402E
:10488000081A294601F07EF80B990A180D480260B3
:104890001A4D2868009701940296103018A10C9BBD
:1048A000FBF736FD28681030FFF72CFC0549086837
:1048B000E12800DAE0E6FF20DDE6C0464C020020F9
:1048C0005002002040020020080000205004002078
:1048D000000500208C0000207800002080000020CF
:1048E00094000020900000207C0000209800002010
:1048F000480200204402002084000020FC04002024
:10490000523A25642C25642C25642C25642C2564BE
:104910000A000000B0B51C4A13680022022B08DB15
:104920001A4C2468E31A8C000019041F24689C4266
:1049300001D2D0B2B0BD0F29FBDB0446083C24688D
:104940009C42F6D3CD1E124C256020380D1F05E089
:104950002160001F4D1E491C0B29EADD29464569CF
:104960009D42F5D805699D42F2D8C5689D42EFD8B1
:1049700085689D42ECD845689D42E9D805689D420E
:10498000E6D84A1CD0B2B0BD080000205004002078
:1049900040020020F0B585B00190052000070125F8
:1049A000E9020027039002913A46FDF710FE1A240F
:1049B00004946E480068416A89B2049A8A18120CFD
:1049C00014D1426A521A049B9A4220D2426A521A65
:1049D000049B9A421BD2426A521A049B9A4216D2F4
:1049E000426A521A049B9A42EBD310E04762416A32
:1049F000049A91420BD2416A049A914207D2416AC9
:104A0000049A914203D2416A049A9142EFD32E0450
:104A1000019D03E0019D7F1C082F6FD02846F840C0
:104A2000C00722D0012203980299FDF7D0FD04941B
:104A30004E480068416A89B2049A8A18B24238D254
:104A4000426A521A049B9A42E5D2426A521A049B65
:104A50009A42E0D2426A521A049B9A42DBD2426ADC
:104A6000521A049B9A42EBD3D5E70025039802998A
:104A70002A46FDF7ACFD04943C480068416A89B2BF
:104A8000049A8A18B24227D2426A521A049B9A4266
:104A9000C0D2426A521A049B9A42BBD2426A521A4C
:104AA000049B9A42B6D2426A521A049B9A42EBD3B2
:104AB000B0E700214162416A049A9142ABD2416A57
:104AC000049A9142A7D2416A049A9142A3D2416AC0
:104AD000049A9142EFD39EE74562416A049A91425B
:104AE00098D2416A049A914294D2416A049A9142BE
:104AF00090D2416A049A9142EFD38BE70122039846
:104B00000299FDF764FD049418480068416A89B26F
:104B1000049A8A18B24214D2426A521A049B9A42E8
:104B200021D2426A521A049B9A421CD2426A521AF9
:104B3000049B9A4217D2426A521A049B9A42EBD3C0
:104B400011E000214162416A049A91420BD2416A0C
:104B5000049A914207D2416A049A914203D2416A6F
:104B6000049A9142EFD305B0F0BDC0465C0100202D
:104B700096B0FDF7D1FF002614961296159613965F
:104B80001196109602240F944020149001200002E8
:104B900012900FA8FEF798F9002801D072B6FEE730
:104BA0000B9607200A900C960D960E960AA80125E2
:104BB0002946FEF7AFF8002801D072B6FEE713963B
:104BC0001296119610960F96F248016829430160DB
:104BD000016829400A910A9901682143016000682F
:104BE00020400A900A98052008940407EA4F2046BE
:104BF00039463246FDF7EBFC1296119510950F974A
:104C00000FAF20463946FDF713FC11961096482049
:104C10000F9020463946FDF70BFC1195DF481090A8
:104C2000280309900F9020463946FDF701FC07271D
:104C3000384631463246FDF7BFFF3846FDF7B0FF34
:104C4000D748D8492F27D84A84C00660416086607B
:104C5000C66006611296119610960838FEF7A8FAFB
:104C6000002801D072B6FEE70794099C0F94CC4847
:104C70000FA9FEF781FB002801D072B6FEE70C9663
:104C80000B960A96C6480AA9FEF766FA002801D0D4
:104C900072B6FEE7C54886611A21C54A84C006601F
:104CA000416086601296119610960B960838FEF7B2
:104CB0007FFA002801D072B6FEE70F94BB480FA917
:104CC000FEF75AFB002801D072B6FEE70C960A9652
:104CD000B6480AA9FEF740FA002801D072B6FEE7EE
:104CE000B4480821B44AB54B03604260024608321A
:104CF00062C246618661C6610662FDF731FD002829
:104D000001D072B6FEE7AB480021FDF76FFC00282A
:104D100001D072B6FEE7A74800210191FDF787FC9C
:104D2000002801D072B6FEE7A548019B8361A54922
:104D3000A54A24C00360416083600838FEF738FA52
:104D4000002801D072B6FEE79548FEF7D1FA9C48DC
:104D5000FEF7CEFA9D48019E06609D4806609D487C
:104D60000670FDF761F99C489C4F076038460D308E
:104D700035210591FBF71AFC3220042139543021EA
:104D80000898099178543E7395489649964A3A6036
:104D90007960B860FF20BE30F88694480660944879
:104DA00006608448FDF7C6FC002801D072B6FEE715
:104DB0000420D421FDF742F8884F05983D549049CE
:104DC000954808180090079E01E0FFF79BF9042022
:104DD00001210691FDF744F90599795C854A12781D
:104DE0008A4200D140427D21C90000F0EDFD824998
:104DF0004118824B18688200814DA950401C1860F0
:104E00003120385C012802D17EA0FFF77BF9099898
:104E1000385C072810D1794801685C290EDB080A44
:104E2000032800D290E0F02275480099FBF726FA9B
:104E30003C207249086001E000F05AFA00F0FEF8E8
:104E40003422B85C69490B68012801D0002B65D178
:104E5000049234200899395468480468202C4DDBAA
:104E60000393631E980066490A58A0000D1829464E
:104E7000083902941F3C174603E008399B1EA342E1
:104E800013DD4E68B24200D832460868824204D927
:104E9000B74205D28742F0D305E00246B742F9D3C4
:104EA00037468742E9D30746E7E7D01B33214B4A11
:104EB0005054103D0298C11E0198AA68EB6818185A
:104EC0001018A14209DD0CCD1818083D10180A1F52
:104ED000103D891EA1421146EFDC1E2100F074FD39
:104EE00007460398B842079E03D04C483946FFF75F
:104EF00009F900204A4908603C48076000273C48FF
:104F00000760069D290230463A46FDF760FB6903BB
:104F100030463A46FDF75BFB304F049A09983D5CFA
:104F200040480078A84200D151E73E480570072D5F
:104F300000D0B42204201146FCF780FF072D3A4828
:104F400000D142E739A040E72D4D2846FFF746FA49
:104F50002A48016823392846FFF7DCFC01462B4824
:104F600001603D2900D269E72548FFF7F3FA0128DF
:104F700000DA63E7264B1978264A505400201F4A6E
:104F80001060481C1870032081021D48FBF710FBBD
:104F900054E7C04634100240B4290000000021103C
:104FA0005C010020FEFF0000002C0140F401002005
:104FB00000040040080100205D3E30200054004005
:104FC000A801002080BB0000002000400411002048
:104FD0000011002058040020FC040020A000002044
:104FE0006476310A6170693370616E645404002024
:104FF000000100209C00002070170000F804002031
:105000000005002025643B0A00000000FC00002091
:1050100074040020750400200C0B0000B05D000833
:10502000501100204C110020BB5D0008456E6473D8
:10503000746F70206D6F64650A000000F0B583B076
:1050400000209A490A1853783B2B40D093783B2B89
:105050003FD0D3783B2B3ED013793B2B3DD05379B7
:105060003B2B3CD093793B2B3BD0D3793B2B3AD095
:10507000137A3B2B39D0537A3B2B38D0937A3B2B86
:1050800037D0D37A3B2B36D0137B3B2B35D0537B99
:105090003B2B34D0937B3B2B33D0D37B3B2B32D079
:1050A000137C3B2B31D0537C3B2B30D0937C3B2B60
:1050B0002FD0D37C3B2B2ED0137D3B2B2DD0527D7C
:1050C00015303B2A2AD03F28BCD1002790E0401C55
:1050D00024E0801C22E0C01C20E0001D1EE0401DDA
:1050E0001CE0801D1AE0C01D18E0083016E00930F1
:1050F00014E00A3012E00B3010E00C300EE00D30FE
:105100000CE00E300AE00F3008E0103006E01130FD
:1051100004E0123002E0133000E014304218511E57
:105120000F78394644392A291CD8C0467944097970
:1051300049008F44151717171734171717174117FA
:1051400017171717171717171717171717171717EF
:1051500017171717556017171732171736173D000F
:10516000312026E039463039CBB2092B3CD83223E6
:105170004F4DE95402280BD3901E00780246313A75
:10518000D2B2082A04D80A21414379181039E954C7
:10519000C9B253A0FEF7B6FF26E0352009E035205E
:1051A0001FE04E48FEF7AEFF3020414907221AE0CB
:1051B00034203F49002216E034203D4901240C549C
:1051C0003C480025056005200607210230462A4696
:1051D000FDF7FDF9610330462A46FDF7F8F903E0D3
:1051E0003120334901220A5430484021FBF7E0F9CD
:1051F000384603B0F0BD30A0FEF784FF30202C4AC3
:105200000221115430480268202AEDDB0297551E16
:10521000A8002E490C58900041180F46083F0192F3
:105220001F3A264603E0083FAD1E954213DD78681D
:10523000844200D804463B689C4205D81C468642FE
:1052400004D29E42EFD304E08642FAD306469E4241
:10525000E9D31E46E7E7A01B3323154CE054103971
:105260000198C31E0020029F8C68CD682818201862
:10527000934209DD30C92818083920181C1F10393D
:105280009B1E93422346EFDC1E2100F09DFB05464A
:105290000F4C2068A84203D00E482946FEF732FF83
:1052A0000D480021016025609EE7C0460C110020DA
:1052B000A000002000010020656E6473746F7020F0
:1052C0006D6F64650A000000F804002000050020EE
:1052D00054040020B05D000850110020BB5D0008A0
:1052E000544852484F4C445F5A3A2025640A000003
:1052F000F0B59BB0DD480468DD4B9C4201DD002425
:1053000004603920DB4F0490385CC0076CD1DA4A66
:105310001068DA494143DA4808180221C841D949DE
:10532000884261D800201060202C5DDB1090631E45
:105330009900D54A5658A1008F183846083F129454
:1053400025461F3D34461193194604E0083F891E47
:105350001546914214DD2A467D68AE4200D82E469D
:105360003B689E4204D9AC4205D29C42EED305E094
:105370001E46AC42F9D32C469C42E7D31C46E5E7D7
:10538000311B3323BB4FF954C9B214292AD8322315
:10539000FB5C9942B64B129C26D80246103A1098F4
:1053A000119C9168D3681B18C818A11EA94206DD7C
:1053B0000ACA1B18C818183A241FAC42F1DC1E2177
:1053C00000F002FB0446B14D2868A04206D0B04868
:1053D0002146FEF797FEA548006812900020A649D6
:1053E00008602C60A24B129C0E200290C643012C38
:1053F000184601DB30460E3020188000A2490858BC
:10540000022C02DB31460D3100E0591E6118890083
:105410009D4A51580818032C02DB31460C3100E03C
:10542000991E6118890051580818042C02DB314676
:105430000B3100E0D91E6118890051580818C117B6
:10544000890F4018841091480568FDF7C9F803904A
:105450003820385C8F490A789042049B00D1D9E00B
:1054600001940870012800D0CFE005967F480068BD
:10547000431E0026844F2DE034460E4612981199A3
:105480000818109940180F9940180E9940180D9956
:1054900040180C9940180B9940180A99401809991E
:1054A0004018089940180799401806994018C019E3
:1054B0008018E2189200744FBA588018C217120F61
:1054C0008018000913AA9053103DB61C202E2B46BD
:1054D00000D1C6E03146664CE018401C6E4A851883
:1054E000002B00D42846800038581290012D204609
:1054F000059E01DB30460E30C018800038581190F0
:10550000022D02DB30460D3000E0601EC018800026
:1055100038581090032D02DB30460C3000E0A01EFE
:10552000C018800038580F90042D02DB30460B3035
:1055300000E0E01EC018800038580E90052D02DBF8
:1055400030460A3000E0201FC018800038580D9007
:10555000062D02DB3046093000E0601FC0188000D5
:1055600038580C90072D02DB3046083000E0A01FB1
:10557000C018800038580B90082D01DBF01D00E0AA
:10558000E01FC018800038580A90092D01DBB01DBB
:1055900001E020460838C0188000385809900A2DCC
:1055A00001DB701D01E020460938C0188000385822
:1055B00008900B2D01DB301D01E020460A38C01891
:1055C0008000385807900C2D01DBF01C01E02046CC
:1055D0000B38C0188000385806900D2D01DBB21C26
:1055E00001E022460C3AD2189200BF580E2D01DB82
:1055F000721C01E022460D3AD2189200D44882581B
:105600000F2D00DB38E70E3C37E7F85CFE21014048
:10561000F954019C601B72B640217854010A412262
:10562000B95462B6F95CCA07264600D12EE11D4680
:10563000C2175040831ACD480268039C0460C74CCF
:105640002068834201D92360184632243C5DA3427E
:1056500000D3E6E0FD2211407955C24900220A60DC
:10566000F1E013A91C390122059821E0F80400207B
:10567000FF020000A000002050110020917EFB3AA4
:105680008D7EFB3AE1361A0000050020540400200C
:10569000B05D0008E800002000FDFFFF501E400044
:1056A00013AD2C52891C581C521C984200D292E017
:1056B00003461C200E5E1E200C5EA6421046EEDD48
:1056C0001D461035CE830020022DE8D31A268E5FAA
:1056D000A642E3DD1F460E378E83E0D018268E5F8C
:1056E000A6425ADD4E83042DD9D316268E5FA642DC
:1056F00055DD1F460C370E83D1D014268E5FA6428F
:105700004FDDCE82062DCAD312268E5FA6424ADD19
:105710001F460A378E82C2D010268E5FA64244DD15
:105720004E82082DBBD3029E8E5FA6423FDD1F46F0
:1057300008370E82B3D00C268E5FA64239DDCE81AB
:105740000A2DACD30A268E5FA64235DD9F1D8E81C1
:10575000A5D008268E5FA64231DD4E810C2D9ED34A
:1057600006268E5FA6422DDD1F1D0E8197D00426D2
:105770008E5FA64229DDCE800E2D90D302254E5F8E
:10578000A64225DD9D1C8E8089D000268F5FA74212
:10579000284684DD4F80304681E7901E7FE7D01E8B
:1057A0007DE7101F7BE7501F79E7901F77E7D01F39
:1057B00075E71046083872E7104609386FE710465B
:1057C0000A386CE710460B3869E710460C3866E774
:1057D00010460D3863E713A80299415E1022805EDF
:1057E0004018C10F401840105A4908605B4900201A
:1057F00008605B4908605B4908605B4908605B4979
:10580000039A0A6072B6514F788762B672B6B8874B
:1058100062B672B6F88762B6012004997854019E88
:1058200034E0039B9A1A0223194379554E490B68B9
:105830009B180B604B4B196889181960484A13680C
:10584000994200D911604A49884200D3084672B68D
:105850003A22B854000A3B22B85462B64248006863
:10586000884200D3084672B63C22B854000A3D2252
:10587000B85462B63A480068884200D3084672B607
:105880003E217854000A3F21785462B631480068BE
:10589000301AC1174840421A3226BB5D35480168AC
:1058A0009A422ED300292CD101240460052005073B
:1058B000210228462246FCF78AFE6103284622463A
:1058C000FCF785FEBA5D234801682C48FEF71AFCF8
:1058D0001C480068204E2A4D0CE088001C490958DD
:1058E0002846FEF70FFC781C1649096808398842DB
:1058F000384624DD144941188F190128EDDB39465B
:10590000EBE75B089A421AD8012918D100240460F9
:10591000052005070126310228462246FCF757FEDE
:10592000710328462246FCF752FE064800688000B4
:1059300007494018001F01680F48FEF7E3FB2046A7
:105940001BB0F0BDF8040020FF020000A000002002
:10595000000500205404002000FDFFFFF40000209B
:10596000F0000020F8000020E4000020EC000020FF
:10597000FFFF000000010020B65D0008A85D0008E0
:10598000C45D000843088B421AD3002203098B42EE
:1059900079D3030A8B425ED3030B8B4242D3030CB1
:1059A0008B4227D30902FF2212BA030C8B4202D387
:1059B0001212090203D0030B8B4233D31AE0D3E057
:1059C000411A8041401C704703460B4371D4430881
:1059D0008B42F5D3002203098B4254D3030A8B4236
:1059E00039D3030B8B421DD3030C8B4202D3944655
:1059F0006EE0090AC30B8B4201D3CB03C01A52419C
:105A0000830B8B4201D38B03C01A5241430B8B4251
:105A100001D34B03C01A5241030B8B4201D30B033A
:105A2000C01A5241C30A8B4201D3CB02C01A524161
:105A3000830A8B4201D38B02C01A5241430A8B4224
:105A400001D34B02C01A5241030A8B4201D30B020D
:105A5000C01A5241CDD2C3098B4201D3CB01C01A27
:105A6000524183098B4201D38B01C01A5241430931
:105A70008B4201D34B01C01A524103098B4201D31F
:105A80000B01C01A5241C3088B4201D3CB00C01A8C
:105A9000524183088B4201D38B00C01A5241430804
:105AA0008B4201D34B00C01A5241411A524110009F
:105AB0007047CA0F00D04942031000D34042534000
:105AC00000229C4603098B422DD3030A8B4212D33A
:105AD0008901FC2212BA030A8B420CD3890192116C
